{
    "contractName": "NFT",
    "abi": [
        {
            "inputs": [],
            "stateMutability": "nonpayable",
            "type": "constructor"
        },
        {
            "inputs": [
                {
                    "internalType": "address",
                    "name": "target",
                    "type": "address"
                }
            ],
            "name": "AddressEmptyCode",
            "type": "error"
        },
        {
            "inputs": [
                {
                    "internalType": "address",
                    "name": "sender",
                    "type": "address"
                },
                {
                    "internalType": "uint256",
                    "name": "balance",
                    "type": "uint256"
                },
                {
                    "internalType": "uint256",
                    "name": "needed",
                    "type": "uint256"
                },
                {
                    "internalType": "uint256",
                    "name": "tokenId",
                    "type": "uint256"
                }
            ],
            "name": "ERC1155InsufficientBalance",
            "type": "error"
        },
        {
            "inputs": [
                {
                    "internalType": "address",
                    "name": "approver",
                    "type": "address"
                }
            ],
            "name": "ERC1155InvalidApprover",
            "type": "error"
        },
        {
            "inputs": [
                {
                    "internalType": "uint256",
                    "name": "idsLength",
                    "type": "uint256"
                },
                {
                    "internalType": "uint256",
                    "name": "valuesLength",
                    "type": "uint256"
                }
            ],
            "name": "ERC1155InvalidArrayLength",
            "type": "error"
        },
        {
            "inputs": [
                {
                    "internalType": "address",
                    "name": "operator",
                    "type": "address"
                }
            ],
            "name": "ERC1155InvalidOperator",
            "type": "error"
        },
        {
            "inputs": [
                {
                    "internalType": "address",
                    "name": "receiver",
                    "type": "address"
                }
            ],
            "name": "ERC1155InvalidReceiver",
            "type": "error"
        },
        {
            "inputs": [
                {
                    "internalType": "address",
                    "name": "sender",
                    "type": "address"
                }
            ],
            "name": "ERC1155InvalidSender",
            "type": "error"
        },
        {
            "inputs": [
                {
                    "internalType": "address",
                    "name": "operator",
                    "type": "address"
                },
                {
                    "internalType": "address",
                    "name": "owner",
                    "type": "address"
                }
            ],
            "name": "ERC1155MissingApprovalForAll",
            "type": "error"
        },
        {
            "inputs": [
                {
                    "internalType": "address",
                    "name": "implementation",
                    "type": "address"
                }
            ],
            "name": "ERC1967InvalidImplementation",
            "type": "error"
        },
        {
            "inputs": [],
            "name": "ERC1967NonPayable",
            "type": "error"
        },
        {
            "inputs": [],
            "name": "EnforcedPause",
            "type": "error"
        },
        {
            "inputs": [],
            "name": "ExpectedPause",
            "type": "error"
        },
        {
            "inputs": [],
            "name": "FailedInnerCall",
            "type": "error"
        },
        {
            "inputs": [],
            "name": "InvalidInitialization",
            "type": "error"
        },
        {
            "inputs": [],
            "name": "NotInitializing",
            "type": "error"
        },
        {
            "inputs": [
                {
                    "internalType": "address",
                    "name": "owner",
                    "type": "address"
                }
            ],
            "name": "OwnableInvalidOwner",
            "type": "error"
        },
        {
            "inputs": [
                {
                    "internalType": "address",
                    "name": "account",
                    "type": "address"
                }
            ],
            "name": "OwnableUnauthorizedAccount",
            "type": "error"
        },
        {
            "inputs": [],
            "name": "UUPSUnauthorizedCallContext",
            "type": "error"
        },
        {
            "inputs": [
                {
                    "internalType": "bytes32",
                    "name": "slot",
                    "type": "bytes32"
                }
            ],
            "name": "UUPSUnsupportedProxiableUUID",
            "type": "error"
        },
        {
            "anonymous": false,
            "inputs": [
                {
                    "indexed": true,
                    "internalType": "address",
                    "name": "account",
                    "type": "address"
                },
                {
                    "indexed": true,
                    "internalType": "address",
                    "name": "operator",
                    "type": "address"
                },
                {
                    "indexed": false,
                    "internalType": "bool",
                    "name": "approved",
                    "type": "bool"
                }
            ],
            "name": "ApprovalForAll",
            "type": "event"
        },
        {
            "anonymous": false,
            "inputs": [
                {
                    "indexed": false,
                    "internalType": "uint64",
                    "name": "version",
                    "type": "uint64"
                }
            ],
            "name": "Initialized",
            "type": "event"
        },
        {
            "anonymous": false,
            "inputs": [
                {
                    "indexed": true,
                    "internalType": "address",
                    "name": "previousOwner",
                    "type": "address"
                },
                {
                    "indexed": true,
                    "internalType": "address",
                    "name": "newOwner",
                    "type": "address"
                }
            ],
            "name": "OwnershipTransferred",
            "type": "event"
        },
        {
            "anonymous": false,
            "inputs": [
                {
                    "indexed": false,
                    "internalType": "address",
                    "name": "account",
                    "type": "address"
                }
            ],
            "name": "Paused",
            "type": "event"
        },
        {
            "anonymous": false,
            "inputs": [
                {
                    "indexed": true,
                    "internalType": "address",
                    "name": "operator",
                    "type": "address"
                },
                {
                    "indexed": true,
                    "internalType": "address",
                    "name": "from",
                    "type": "address"
                },
                {
                    "indexed": true,
                    "internalType": "address",
                    "name": "to",
                    "type": "address"
                },
                {
                    "indexed": false,
                    "internalType": "uint256[]",
                    "name": "ids",
                    "type": "uint256[]"
                },
                {
                    "indexed": false,
                    "internalType": "uint256[]",
                    "name": "values",
                    "type": "uint256[]"
                }
            ],
            "name": "TransferBatch",
            "type": "event"
        },
        {
            "anonymous": false,
            "inputs": [
                {
                    "indexed": true,
                    "internalType": "address",
                    "name": "operator",
                    "type": "address"
                },
                {
                    "indexed": true,
                    "internalType": "address",
                    "name": "from",
                    "type": "address"
                },
                {
                    "indexed": true,
                    "internalType": "address",
                    "name": "to",
                    "type": "address"
                },
                {
                    "indexed": false,
                    "internalType": "uint256",
                    "name": "id",
                    "type": "uint256"
                },
                {
                    "indexed": false,
                    "internalType": "uint256",
                    "name": "value",
                    "type": "uint256"
                }
            ],
            "name": "TransferSingle",
            "type": "event"
        },
        {
            "anonymous": false,
            "inputs": [
                {
                    "indexed": false,
                    "internalType": "string",
                    "name": "value",
                    "type": "string"
                },
                {
                    "indexed": true,
                    "internalType": "uint256",
                    "name": "id",
                    "type": "uint256"
                }
            ],
            "name": "URI",
            "type": "event"
        },
        {
            "anonymous": false,
            "inputs": [
                {
                    "indexed": false,
                    "internalType": "address",
                    "name": "account",
                    "type": "address"
                }
            ],
            "name": "Unpaused",
            "type": "event"
        },
        {
            "anonymous": false,
            "inputs": [
                {
                    "indexed": true,
                    "internalType": "address",
                    "name": "implementation",
                    "type": "address"
                }
            ],
            "name": "Upgraded",
            "type": "event"
        },
        {
            "inputs": [],
            "name": "UPGRADE_INTERFACE_VERSION",
            "outputs": [
                {
                    "internalType": "string",
                    "name": "",
                    "type": "string"
                }
            ],
            "stateMutability": "view",
            "type": "function"
        },
        {
            "inputs": [
                {
                    "internalType": "address",
                    "name": "account",
                    "type": "address"
                },
                {
                    "internalType": "uint256",
                    "name": "id",
                    "type": "uint256"
                }
            ],
            "name": "balanceOf",
            "outputs": [
                {
                    "internalType": "uint256",
                    "name": "",
                    "type": "uint256"
                }
            ],
            "stateMutability": "view",
            "type": "function"
        },
        {
            "inputs": [
                {
                    "internalType": "address[]",
                    "name": "accounts",
                    "type": "address[]"
                },
                {
                    "internalType": "uint256[]",
                    "name": "ids",
                    "type": "uint256[]"
                }
            ],
            "name": "balanceOfBatch",
            "outputs": [
                {
                    "internalType": "uint256[]",
                    "name": "",
                    "type": "uint256[]"
                }
            ],
            "stateMutability": "view",
            "type": "function"
        },
        {
            "inputs": [
                {
                    "internalType": "address",
                    "name": "account",
                    "type": "address"
                },
                {
                    "internalType": "uint256",
                    "name": "id",
                    "type": "uint256"
                },
                {
                    "internalType": "uint256",
                    "name": "value",
                    "type": "uint256"
                }
            ],
            "name": "burn",
            "outputs": [],
            "stateMutability": "nonpayable",
            "type": "function"
        },
        {
            "inputs": [
                {
                    "internalType": "address",
                    "name": "account",
                    "type": "address"
                },
                {
                    "internalType": "uint256[]",
                    "name": "ids",
                    "type": "uint256[]"
                },
                {
                    "internalType": "uint256[]",
                    "name": "values",
                    "type": "uint256[]"
                }
            ],
            "name": "burnBatch",
            "outputs": [],
            "stateMutability": "nonpayable",
            "type": "function"
        },
        {
            "inputs": [
                {
                    "internalType": "uint256",
                    "name": "id",
                    "type": "uint256"
                }
            ],
            "name": "exists",
            "outputs": [
                {
                    "internalType": "bool",
                    "name": "",
                    "type": "bool"
                }
            ],
            "stateMutability": "view",
            "type": "function"
        },
        {
            "inputs": [
                {
                    "internalType": "address",
                    "name": "initialOwner",
                    "type": "address"
                }
            ],
            "name": "initialize",
            "outputs": [],
            "stateMutability": "nonpayable",
            "type": "function"
        },
        {
            "inputs": [
                {
                    "internalType": "address",
                    "name": "account",
                    "type": "address"
                },
                {
                    "internalType": "address",
                    "name": "operator",
                    "type": "address"
                }
            ],
            "name": "isApprovedForAll",
            "outputs": [
                {
                    "internalType": "bool",
                    "name": "",
                    "type": "bool"
                }
            ],
            "stateMutability": "view",
            "type": "function"
        },
        {
            "inputs": [
                {
                    "internalType": "address",
                    "name": "account",
                    "type": "address"
                },
                {
                    "internalType": "uint256",
                    "name": "id",
                    "type": "uint256"
                },
                {
                    "internalType": "uint256",
                    "name": "amount",
                    "type": "uint256"
                },
                {
                    "internalType": "bytes",
                    "name": "data",
                    "type": "bytes"
                }
            ],
            "name": "mint",
            "outputs": [],
            "stateMutability": "nonpayable",
            "type": "function"
        },
        {
            "inputs": [
                {
                    "internalType": "address",
                    "name": "to",
                    "type": "address"
                },
                {
                    "internalType": "uint256[]",
                    "name": "ids",
                    "type": "uint256[]"
                },
                {
                    "internalType": "uint256[]",
                    "name": "amounts",
                    "type": "uint256[]"
                },
                {
                    "internalType": "bytes",
                    "name": "data",
                    "type": "bytes"
                }
            ],
            "name": "mintBatch",
            "outputs": [],
            "stateMutability": "nonpayable",
            "type": "function"
        },
        {
            "inputs": [],
            "name": "owner",
            "outputs": [
                {
                    "internalType": "address",
                    "name": "",
                    "type": "address"
                }
            ],
            "stateMutability": "view",
            "type": "function"
        },
        {
            "inputs": [],
            "name": "pause",
            "outputs": [],
            "stateMutability": "nonpayable",
            "type": "function"
        },
        {
            "inputs": [],
            "name": "paused",
            "outputs": [
                {
                    "internalType": "bool",
                    "name": "",
                    "type": "bool"
                }
            ],
            "stateMutability": "view",
            "type": "function"
        },
        {
            "inputs": [],
            "name": "proxiableUUID",
            "outputs": [
                {
                    "internalType": "bytes32",
                    "name": "",
                    "type": "bytes32"
                }
            ],
            "stateMutability": "view",
            "type": "function"
        },
        {
            "inputs": [],
            "name": "renounceOwnership",
            "outputs": [],
            "stateMutability": "nonpayable",
            "type": "function"
        },
        {
            "inputs": [
                {
                    "internalType": "address",
                    "name": "from",
                    "type": "address"
                },
                {
                    "internalType": "address",
                    "name": "to",
                    "type": "address"
                },
                {
                    "internalType": "uint256[]",
                    "name": "ids",
                    "type": "uint256[]"
                },
                {
                    "internalType": "uint256[]",
                    "name": "values",
                    "type": "uint256[]"
                },
                {
                    "internalType": "bytes",
                    "name": "data",
                    "type": "bytes"
                }
            ],
            "name": "safeBatchTransferFrom",
            "outputs": [],
            "stateMutability": "nonpayable",
            "type": "function"
        },
        {
            "inputs": [
                {
                    "internalType": "address",
                    "name": "from",
                    "type": "address"
                },
                {
                    "internalType": "address",
                    "name": "to",
                    "type": "address"
                },
                {
                    "internalType": "uint256",
                    "name": "id",
                    "type": "uint256"
                },
                {
                    "internalType": "uint256",
                    "name": "value",
                    "type": "uint256"
                },
                {
                    "internalType": "bytes",
                    "name": "data",
                    "type": "bytes"
                }
            ],
            "name": "safeTransferFrom",
            "outputs": [],
            "stateMutability": "nonpayable",
            "type": "function"
        },
        {
            "inputs": [
                {
                    "internalType": "address",
                    "name": "operator",
                    "type": "address"
                },
                {
                    "internalType": "bool",
                    "name": "approved",
                    "type": "bool"
                }
            ],
            "name": "setApprovalForAll",
            "outputs": [],
            "stateMutability": "nonpayable",
            "type": "function"
        },
        {
            "inputs": [
                {
                    "internalType": "string",
                    "name": "newuri",
                    "type": "string"
                }
            ],
            "name": "setURI",
            "outputs": [],
            "stateMutability": "nonpayable",
            "type": "function"
        },
        {
            "inputs": [
                {
                    "internalType": "bytes4",
                    "name": "interfaceId",
                    "type": "bytes4"
                }
            ],
            "name": "supportsInterface",
            "outputs": [
                {
                    "internalType": "bool",
                    "name": "",
                    "type": "bool"
                }
            ],
            "stateMutability": "view",
            "type": "function"
        },
        {
            "inputs": [],
            "name": "totalSupply",
            "outputs": [
                {
                    "internalType": "uint256",
                    "name": "",
                    "type": "uint256"
                }
            ],
            "stateMutability": "view",
            "type": "function"
        },
        {
            "inputs": [
                {
                    "internalType": "uint256",
                    "name": "id",
                    "type": "uint256"
                }
            ],
            "name": "totalSupply",
            "outputs": [
                {
                    "internalType": "uint256",
                    "name": "",
                    "type": "uint256"
                }
            ],
            "stateMutability": "view",
            "type": "function"
        },
        {
            "inputs": [
                {
                    "internalType": "address",
                    "name": "newOwner",
                    "type": "address"
                }
            ],
            "name": "transferOwnership",
            "outputs": [],
            "stateMutability": "nonpayable",
            "type": "function"
        },
        {
            "inputs": [],
            "name": "unpause",
            "outputs": [],
            "stateMutability": "nonpayable",
            "type": "function"
        },
        {
            "inputs": [
                {
                    "internalType": "address",
                    "name": "newImplementation",
                    "type": "address"
                },
                {
                    "internalType": "bytes",
                    "name": "data",
                    "type": "bytes"
                }
            ],
            "name": "upgradeToAndCall",
            "outputs": [],
            "stateMutability": "payable",
            "type": "function"
        },
        {
            "inputs": [
                {
                    "internalType": "uint256",
                    "name": "",
                    "type": "uint256"
                }
            ],
            "name": "uri",
            "outputs": [
                {
                    "internalType": "string",
                    "name": "",
                    "type": "string"
                }
            ],
            "stateMutability": "view",
            "type": "function"
        }
    ],
    "bytecode": "60a060405230608052348015610013575f80fd5b5061001c610021565b6100d3565b7ff0c57e16840df040f15088dc2f81fe391c3923bec73e23a9662efc9c229c6a00805468010000000000000000900460ff16156100715760405163f92ee8a960e01b815260040160405180910390fd5b80546001600160401b03908116146100d05780546001600160401b0319166001600160401b0390811782556040519081527fc7f505b2f371ae2175ee4913f4499e1f2633a7b5936321eed1cdaeb6115181d29060200160405180910390a15b50565b608051612427620000fa5f395f8181610ce301528181610d0c0152610e4b01526124275ff3fe60806040526004361061017a575f3560e01c80636b20c454116100cd578063ad3cb1cc11610087578063e985e9c511610062578063e985e9c5146104d7578063f242432a146104f6578063f2fde38b14610515578063f5298aca14610534575f80fd5b8063ad3cb1cc1461043e578063bd85b0391461046e578063c4d66de8146104b8575f80fd5b80636b20c45414610373578063715018a614610392578063731133e9146103a65780638456cb59146103c55780638da5cb5b146103d9578063a22cb4651461041f575f80fd5b80632eb2c2d6116101385780634f1ef286116101135780634f1ef286146102dd5780634f558e79146102f057806352d1902d1461033c5780635c975abb14610350575f80fd5b80632eb2c2d61461027e5780633f4ba83a1461029d5780634e1273f4146102b1575f80fd5b8062fdd58e1461017e57806301ffc9a7146101b057806302fe5305146101df5780630e89341c1461020057806318160ddd1461022c5780631f7fdffa1461025f575b5f80fd5b348015610189575f80fd5b5061019d610198366004611a6e565b610553565b6040519081526020015b60405180910390f35b3480156101bb575f80fd5b506101cf6101ca366004611aab565b610588565b60405190151581526020016101a7565b3480156101ea575f80fd5b506101fe6101f9366004611b5e565b6105d7565b005b34801561020b575f80fd5b5061021f61021a366004611baa565b6105eb565b6040516101a79190611c0e565b348015610237575f80fd5b507f4a593662ee04d27b6a00ebb31be7fe0c102c2ade82a7c5d764f2df05dc4e28015461019d565b34801561026a575f80fd5b506101fe610279366004611ccc565b6106ad565b348015610289575f80fd5b506101fe610298366004611d5e565b6106c7565b3480156102a8575f80fd5b506101fe610733565b3480156102bc575f80fd5b506102d06102cb366004611e00565b610745565b6040516101a79190611ef3565b6101fe6102eb366004611f05565b61080f565b3480156102fb575f80fd5b506101cf61030a366004611baa565b5f9081527f4a593662ee04d27b6a00ebb31be7fe0c102c2ade82a7c5d764f2df05dc4e28006020526040902054151590565b348015610347575f80fd5b5061019d61082e565b34801561035b575f80fd5b505f805160206123d28339815191525460ff166101cf565b34801561037e575f80fd5b506101fe61038d366004611f45565b610849565b34801561039d575f80fd5b506101fe6108ad565b3480156103b1575f80fd5b506101fe6103c0366004611fb3565b6108be565b3480156103d0575f80fd5b506101fe6108d2565b3480156103e4575f80fd5b507f9016d09d72d40fdae2fd8ceac6b6234c7706214fd39c1cd1e609a0528c199300546040516001600160a01b0390911681526020016101a7565b34801561042a575f80fd5b506101fe610439366004612003565b6108e2565b348015610449575f80fd5b5061021f604051806040016040528060058152602001640352e302e360dc1b81525081565b348015610479575f80fd5b5061019d610488366004611baa565b5f9081527f4a593662ee04d27b6a00ebb31be7fe0c102c2ade82a7c5d764f2df05dc4e2800602052604090205490565b3480156104c3575f80fd5b506101fe6104d236600461203c565b6108ed565b3480156104e2575f80fd5b506101cf6104f1366004612055565b610a2f565b348015610501575f80fd5b506101fe610510366004612086565b610a7b565b348015610520575f80fd5b506101fe61052f36600461203c565b610ada565b34801561053f575f80fd5b506101fe61054e3660046120e5565b610b14565b5f8181525f805160206123b2833981519152602090815260408083206001600160a01b03861684529091529020545b92915050565b5f6001600160e01b03198216636cdb3d1360e11b14806105b857506001600160e01b031982166303a24d0760e21b145b8061058257506301ffc9a760e01b6001600160e01b0319831614610582565b6105df610b4a565b6105e881610ba5565b50565b7f88be536d5240c274a3b1d3a1be54482fd9caa294f08c62a7cde569f49a3c450280546060915f805160206123b28339815191529161062990612115565b80601f016020809104026020016040519081016040528092919081815260200182805461065590612115565b80156106a05780601f10610677576101008083540402835291602001916106a0565b820191905f5260205f20905b81548152906001019060200180831161068357829003601f168201915b5050505050915050919050565b6106b5610b4a565b6106c184848484610bde565b50505050565b336001600160a01b03861681148015906106e857506106e68682610a2f565b155b1561071e5760405163711bec9160e11b81526001600160a01b038083166004830152871660248201526044015b60405180910390fd5b61072b8686868686610c14565b505050505050565b61073b610b4a565b610743610c79565b565b606081518351146107765781518351604051635b05999160e01b815260048101929092526024820152604401610715565b5f83516001600160401b0381111561079057610790611ac6565b6040519080825280602002602001820160405280156107b9578160200160208202803683370190505b5090505f5b8451811015610807576020808202860101516107e290602080840287010151610553565b8282815181106107f4576107f461214d565b60209081029190910101526001016107be565b509392505050565b610817610cd8565b61082082610d7c565b61082a8282610d84565b5050565b5f610837610e40565b505f8051602061239283398151915290565b6001600160a01b038316331480159061086957506108678333610a2f565b155b1561089d57335b60405163711bec9160e11b81526001600160a01b0391821660048201529084166024820152604401610715565b6108a8838383610e89565b505050565b6108b5610b4a565b6107435f610ecc565b6108c6610b4a565b6106c184848484610f3c565b6108da610b4a565b610743610f97565b61082a338383610fdf565b7ff0c57e16840df040f15088dc2f81fe391c3923bec73e23a9662efc9c229c6a008054600160401b810460ff1615906001600160401b03165f811580156109315750825b90505f826001600160401b0316600114801561094c5750303b155b90508115801561095a575080155b156109785760405163f92ee8a960e01b815260040160405180910390fd5b845467ffffffffffffffff1916600117855583156109a257845460ff60401b1916600160401b1785555b6109b960405180602001604052805f815250611084565b6109c286611095565b6109ca6110a6565b6109d26110b6565b6109da6110b6565b6109e26110b6565b831561072b57845460ff60401b19168555604051600181527fc7f505b2f371ae2175ee4913f4499e1f2633a7b5936321eed1cdaeb6115181d29060200160405180910390a1505050505050565b6001600160a01b039182165f9081527f88be536d5240c274a3b1d3a1be54482fd9caa294f08c62a7cde569f49a3c45016020908152604080832093909416825291909152205460ff1690565b336001600160a01b0386168114801590610a9c5750610a9a8682610a2f565b155b15610acd5760405163711bec9160e11b81526001600160a01b03808316600483015287166024820152604401610715565b61072b86868686866110be565b610ae2610b4a565b6001600160a01b038116610b0b57604051631e4fbdf760e01b81525f6004820152602401610715565b6105e881610ecc565b6001600160a01b0383163314801590610b345750610b328333610a2f565b155b15610b3f5733610870565b6108a883838361114a565b33610b7c7f9016d09d72d40fdae2fd8ceac6b6234c7706214fd39c1cd1e609a0528c199300546001600160a01b031690565b6001600160a01b0316146107435760405163118cdaa760e01b8152336004820152602401610715565b5f805160206123b28339815191527f88be536d5240c274a3b1d3a1be54482fd9caa294f08c62a7cde569f49a3c45026108a883826121a5565b6001600160a01b038416610c0757604051632bfa23e760e11b81525f6004820152602401610715565b6106c15f858585856111ac565b6001600160a01b038416610c3d57604051632bfa23e760e11b81525f6004820152602401610715565b6001600160a01b038516610c6557604051626a0d4560e21b81525f6004820152602401610715565b610c7285858585856111ac565b5050505050565b610c816111ff565b5f805160206123d2833981519152805460ff191681557f5db9ee0a495bf2e6ff9c91a7834c1ba4fdd244a5e8aa4e537bd38aeae4b073aa335b6040516001600160a01b03909116815260200160405180910390a150565b306001600160a01b037f0000000000000000000000000000000000000000000000000000000000000000161480610d5e57507f00000000000000000000000000000000000000000000000000000000000000006001600160a01b0316610d525f80516020612392833981519152546001600160a01b031690565b6001600160a01b031614155b156107435760405163703e46dd60e11b815260040160405180910390fd5b6105e8610b4a565b816001600160a01b03166352d1902d6040518163ffffffff1660e01b8152600401602060405180830381865afa925050508015610dde575060408051601f3d908101601f19168201909252610ddb91810190612260565b60015b610e0657604051634c9c8ce360e01b81526001600160a01b0383166004820152602401610715565b5f805160206123928339815191528114610e3657604051632a87526960e21b815260048101829052602401610715565b6108a8838361122e565b306001600160a01b037f000000000000000000000000000000000000000000000000000000000000000016146107435760405163703e46dd60e11b815260040160405180910390fd5b6001600160a01b038316610eb157604051626a0d4560e21b81525f6004820152602401610715565b6108a8835f848460405180602001604052805f8152506111ac565b7f9016d09d72d40fdae2fd8ceac6b6234c7706214fd39c1cd1e609a0528c19930080546001600160a01b031981166001600160a01b03848116918217845560405192169182907f8be0079c531659141344cd1fd0a4f28419497f9722a3daafe3b4186f6b6457e0905f90a3505050565b6001600160a01b038416610f6557604051632bfa23e760e11b81525f6004820152602401610715565b6040805160018082526020820186905281830190815260608201859052608082019092529061072b5f878484876111ac565b610f9f611283565b5f805160206123d2833981519152805460ff191660011781557f62e78cea01bee320cd4e420270b5ea74000d11b0c9f74754ebdbfc544b05a25833610cba565b5f805160206123b28339815191526001600160a01b0383166110155760405162ced3e160e81b81525f6004820152602401610715565b6001600160a01b038481165f818152600184016020908152604080832094881680845294825291829020805460ff191687151590811790915591519182527f17307eab39ab6107e8899845ad3d59bd9653f200f220920489ca2b5937696c31910160405180910390a350505050565b61108c6112b3565b6105e8816112fc565b61109d6112b3565b6105e881611304565b6110ae6112b3565b61074361130c565b6107436112b3565b6001600160a01b0384166110e757604051632bfa23e760e11b81525f6004820152602401610715565b6001600160a01b03851661110f57604051626a0d4560e21b81525f6004820152602401610715565b6040805160018082526020820186905281830190815260608201859052608082019092529061114187878484876111ac565b50505050505050565b6001600160a01b03831661117257604051626a0d4560e21b81525f6004820152602401610715565b604080516001808252602082018590528183019081526060820184905260a082019092525f60808201818152919291610c72918791859085905b6111b88585858561132c565b6001600160a01b03841615610c7257825133906001036111f157602084810151908401516111ea838989858589611338565b505061072b565b61072b818787878787611459565b5f805160206123d28339815191525460ff1661074357604051638dfc202b60e01b815260040160405180910390fd5b61123782611540565b6040516001600160a01b038316907fbc7cd75a20ee27fd9adebab32041f755214dbc6bffa90cc0225b39da2e5c2d3b905f90a280511561127b576108a882826115a3565b61082a611615565b5f805160206123d28339815191525460ff16156107435760405163d93c066560e01b815260040160405180910390fd5b7ff0c57e16840df040f15088dc2f81fe391c3923bec73e23a9662efc9c229c6a0054600160401b900460ff1661074357604051631afcd79f60e31b815260040160405180910390fd5b6105df6112b3565b610ae26112b3565b6113146112b3565b5f805160206123d2833981519152805460ff19169055565b6106c184848484611634565b6001600160a01b0384163b1561072b5760405163f23a6e6160e01b81526001600160a01b0385169063f23a6e619061137c9089908990889088908890600401612277565b6020604051808303815f875af19250505080156113b6575060408051601f3d908101601f191682019092526113b3918101906122bb565b60015b61141d573d8080156113e3576040519150601f19603f3d011682016040523d82523d5f602084013e6113e8565b606091505b5080515f0361141557604051632bfa23e760e11b81526001600160a01b0386166004820152602401610715565b805181602001fd5b6001600160e01b0319811663f23a6e6160e01b1461114157604051632bfa23e760e11b81526001600160a01b0386166004820152602401610715565b6001600160a01b0384163b1561072b5760405163bc197c8160e01b81526001600160a01b0385169063bc197c819061149d90899089908890889088906004016122d6565b6020604051808303815f875af19250505080156114d7575060408051601f3d908101601f191682019092526114d4918101906122bb565b60015b611504573d8080156113e3576040519150601f19603f3d011682016040523d82523d5f602084013e6113e8565b6001600160e01b0319811663bc197c8160e01b1461114157604051632bfa23e760e11b81526001600160a01b0386166004820152602401610715565b806001600160a01b03163b5f0361157557604051634c9c8ce360e01b81526001600160a01b0382166004820152602401610715565b5f8051602061239283398151915280546001600160a01b0319166001600160a01b0392909216919091179055565b60605f80846001600160a01b0316846040516115bf9190612333565b5f60405180830381855af49150503d805f81146115f7576040519150601f19603f3d011682016040523d82523d5f602084013e6115fc565b606091505b509150915061160c858383611798565b95945050505050565b34156107435760405163b398979f60e01b815260040160405180910390fd5b7f4a593662ee04d27b6a00ebb31be7fe0c102c2ade82a7c5d764f2df05dc4e2800611661858585856117f7565b6001600160a01b038516611708575f805b84518110156116ed575f84828151811061168e5761168e61214d565b6020026020010151905080845f015f8885815181106116af576116af61214d565b602002602001015181526020019081526020015f205f8282546116d2919061234e565b909155506116e29050818461234e565b925050600101611672565b5080826001015f828254611701919061234e565b9091555050505b6001600160a01b038416610c72575f805b8451811015611784575f8482815181106117355761173561214d565b6020026020010151905080845f015f8885815181106117565761175661214d565b60209081029190910181015182528101919091526040015f2080549190910390559190910190600101611719565b506001820180549190910390555050505050565b6060826117ad576117a88261180b565b6117f0565b81511580156117c457506001600160a01b0384163b155b156117ed57604051639996b31560e01b81526001600160a01b0385166004820152602401610715565b50805b9392505050565b6117ff611283565b6106c184848484611834565b80511561181b5780518082602001fd5b604051630a12f52160e11b815260040160405180910390fd5b805182515f805160206123b283398151915291146118725782518251604051635b05999160e01b815260048101929092526024820152604401610715565b335f5b8451811015611974576020818102868101820151908601909101516001600160a01b03891615611926575f828152602086815260408083206001600160a01b038d16845290915290205481811015611900576040516303dee4c560e01b81526001600160a01b038b166004820152602481018290526044810183905260648101849052608401610715565b5f838152602087815260408083206001600160a01b038e16845290915290209082900390555b6001600160a01b0388161561196a575f828152602086815260408083206001600160a01b038c1684529091528120805483929061196490849061234e565b90915550505b5050600101611875565b5083516001036119f45760208401515f906020850151909150866001600160a01b0316886001600160a01b0316846001600160a01b03167fc3d58168c5ae7397731d063d5bbf3d657854427343f4c083240f7aacaa2d0f6285856040516119e5929190918252602082015260400190565b60405180910390a4505061072b565b846001600160a01b0316866001600160a01b0316826001600160a01b03167f4a39dc06d4c0dbc64b70af90fd698a233a518aa5d07e595d983b8c0526c8f7fb8787604051611a4392919061236d565b60405180910390a4505050505050565b80356001600160a01b0381168114611a69575f80fd5b919050565b5f8060408385031215611a7f575f80fd5b611a8883611a53565b946020939093013593505050565b6001600160e01b0319811681146105e8575f80fd5b5f60208284031215611abb575f80fd5b81356117f081611a96565b634e487b7160e01b5f52604160045260245ffd5b604051601f8201601f191681016001600160401b0381118282101715611b0257611b02611ac6565b604052919050565b5f6001600160401b03831115611b2257611b22611ac6565b611b35601f8401601f1916602001611ada565b9050828152838383011115611b48575f80fd5b828260208301375f602084830101529392505050565b5f60208284031215611b6e575f80fd5b81356001600160401b03811115611b83575f80fd5b8201601f81018413611b93575f80fd5b611ba284823560208401611b0a565b949350505050565b5f60208284031215611bba575f80fd5b5035919050565b5f5b83811015611bdb578181015183820152602001611bc3565b50505f910152565b5f8151808452611bfa816020860160208601611bc1565b601f01601f19169290920160200192915050565b602081525f6117f06020830184611be3565b5f6001600160401b03821115611c3857611c38611ac6565b5060051b60200190565b5f82601f830112611c51575f80fd5b81356020611c66611c6183611c20565b611ada565b8083825260208201915060208460051b870101935086841115611c87575f80fd5b602086015b84811015611ca35780358352918301918301611c8c565b509695505050505050565b5f82601f830112611cbd575f80fd5b6117f083833560208501611b0a565b5f805f8060808587031215611cdf575f80fd5b611ce885611a53565b935060208501356001600160401b0380821115611d03575f80fd5b611d0f88838901611c42565b94506040870135915080821115611d24575f80fd5b611d3088838901611c42565b93506060870135915080821115611d45575f80fd5b50611d5287828801611cae565b91505092959194509250565b5f805f805f60a08688031215611d72575f80fd5b611d7b86611a53565b9450611d8960208701611a53565b935060408601356001600160401b0380821115611da4575f80fd5b611db089838a01611c42565b94506060880135915080821115611dc5575f80fd5b611dd189838a01611c42565b93506080880135915080821115611de6575f80fd5b50611df388828901611cae565b9150509295509295909350565b5f8060408385031215611e11575f80fd5b82356001600160401b0380821115611e27575f80fd5b818501915085601f830112611e3a575f80fd5b81356020611e4a611c6183611c20565b82815260059290921b84018101918181019089841115611e68575f80fd5b948201945b83861015611e8d57611e7e86611a53565b82529482019490820190611e6d565b96505086013592505080821115611ea2575f80fd5b50611eaf85828601611c42565b9150509250929050565b5f815180845260208085019450602084015f5b83811015611ee857815187529582019590820190600101611ecc565b509495945050505050565b602081525f6117f06020830184611eb9565b5f8060408385031215611f16575f80fd5b611f1f83611a53565b915060208301356001600160401b03811115611f39575f80fd5b611eaf85828601611cae565b5f805f60608486031215611f57575f80fd5b611f6084611a53565b925060208401356001600160401b0380821115611f7b575f80fd5b611f8787838801611c42565b93506040860135915080821115611f9c575f80fd5b50611fa986828701611c42565b9150509250925092565b5f805f8060808587031215611fc6575f80fd5b611fcf85611a53565b9350602085013592506040850135915060608501356001600160401b03811115611ff7575f80fd5b611d5287828801611cae565b5f8060408385031215612014575f80fd5b61201d83611a53565b915060208301358015158114612031575f80fd5b809150509250929050565b5f6020828403121561204c575f80fd5b6117f082611a53565b5f8060408385031215612066575f80fd5b61206f83611a53565b915061207d60208401611a53565b90509250929050565b5f805f805f60a0868803121561209a575f80fd5b6120a386611a53565b94506120b160208701611a53565b9350604086013592506060860135915060808601356001600160401b038111156120d9575f80fd5b611df388828901611cae565b5f805f606084860312156120f7575f80fd5b61210084611a53565b95602085013595506040909401359392505050565b600181811c9082168061212957607f821691505b60208210810361214757634e487b7160e01b5f52602260045260245ffd5b50919050565b634e487b7160e01b5f52603260045260245ffd5b601f8211156108a857805f5260205f20601f840160051c810160208510156121865750805b601f840160051c820191505b81811015610c72575f8155600101612192565b81516001600160401b038111156121be576121be611ac6565b6121d2816121cc8454612115565b84612161565b602080601f831160018114612205575f84156121ee5750858301515b5f19600386901b1c1916600185901b17855561072b565b5f85815260208120601f198616915b8281101561223357888601518255948401946001909101908401612214565b508582101561225057878501515f19600388901b60f8161c191681555b5050505050600190811b01905550565b5f60208284031215612270575f80fd5b5051919050565b6001600160a01b03868116825285166020820152604081018490526060810183905260a0608082018190525f906122b090830184611be3565b979650505050505050565b5f602082840312156122cb575f80fd5b81516117f081611a96565b6001600160a01b0386811682528516602082015260a0604082018190525f9061230190830186611eb9565b82810360608401526123138186611eb9565b905082810360808401526123278185611be3565b98975050505050505050565b5f8251612344818460208701611bc1565b9190910192915050565b8082018082111561058257634e487b7160e01b5f52601160045260245ffd5b604081525f61237f6040830185611eb9565b828103602084015261160c8185611eb956fe360894a13ba1a3210667c828492db98dca3e2076cc3735a920a3ca505d382bbc88be536d5240c274a3b1d3a1be54482fd9caa294f08c62a7cde569f49a3c4500cd5ed15c6e187e77e9aee88184c21f4f2182ab5827cb3b7e07fbedcd63f03300a2646970667358221220c657ace11ccb4c815742a0a5df58bfc76894b9f796a76161ef305159911f4dd164736f6c63430008170033",
    "sourcePath": "/home/vishal/GAMI/Blockchain/NFT/contracts/nft/erc1155.sol",
    "compiler": {
        "name": "solc",
        "version": "0.8.23+commit.f704f362"
    },
    "functionHashes": {
        "UPGRADE_INTERFACE_VERSION()": "ad3cb1cc",
        "balanceOf(address,uint256)": "00fdd58e",
        "balanceOfBatch(address[],uint256[])": "4e1273f4",
        "burn(address,uint256,uint256)": "f5298aca",
        "burnBatch(address,uint256[],uint256[])": "6b20c454",
        "exists(uint256)": "4f558e79",
        "initialize(address)": "c4d66de8",
        "isApprovedForAll(address,address)": "e985e9c5",
        "mint(address,uint256,uint256,bytes)": "731133e9",
        "mintBatch(address,uint256[],uint256[],bytes)": "1f7fdffa",
        "owner()": "8da5cb5b",
        "pause()": "8456cb59",
        "paused()": "5c975abb",
        "proxiableUUID()": "52d1902d",
        "renounceOwnership()": "715018a6",
        "safeBatchTransferFrom(address,address,uint256[],uint256[],bytes)": "2eb2c2d6",
        "safeTransferFrom(address,address,uint256,uint256,bytes)": "f242432a",
        "setApprovalForAll(address,bool)": "a22cb465",
        "setURI(string)": "02fe5305",
        "supportsInterface(bytes4)": "01ffc9a7",
        "totalSupply()": "18160ddd",
        "totalSupply(uint256)": "bd85b039",
        "transferOwnership(address)": "f2fde38b",
        "unpause()": "3f4ba83a",
        "upgradeToAndCall(address,bytes)": "4f1ef286",
        "uri(uint256)": "0e89341c"
    },
    "gasEstimates": {
        "creation": {
            "codeDepositCost": "1851000",
            "executionCost": "infinite",
            "totalCost": "infinite"
        },
        "external": {
            "UPGRADE_INTERFACE_VERSION()": "infinite",
            "balanceOf(address,uint256)": "infinite",
            "balanceOfBatch(address[],uint256[])": "infinite",
            "burn(address,uint256,uint256)": "infinite",
            "burnBatch(address,uint256[],uint256[])": "infinite",
            "exists(uint256)": "2514",
            "initialize(address)": "infinite",
            "isApprovedForAll(address,address)": "infinite",
            "mint(address,uint256,uint256,bytes)": "infinite",
            "mintBatch(address,uint256[],uint256[],bytes)": "infinite",
            "owner()": "2411",
            "pause()": "infinite",
            "paused()": "infinite",
            "proxiableUUID()": "infinite",
            "renounceOwnership()": "infinite",
            "safeBatchTransferFrom(address,address,uint256[],uint256[],bytes)": "infinite",
            "safeTransferFrom(address,address,uint256,uint256,bytes)": "infinite",
            "setApprovalForAll(address,bool)": "infinite",
            "setURI(string)": "infinite",
            "supportsInterface(bytes4)": "575",
            "totalSupply()": "2392",
            "totalSupply(uint256)": "2491",
            "transferOwnership(address)": "28453",
            "unpause()": "infinite",
            "upgradeToAndCall(address,bytes)": "infinite",
            "uri(uint256)": "infinite"
        },
        "internal": {
            "_authorizeUpgrade(address)": "infinite",
            "_update(address,address,uint256[] memory,uint256[] memory)": "infinite"
        }
    }
}